:100000000C942A000C943F000C943F000C943F0089
:100010000C943F000C943F000C943F000C943F0064
:100020000C943F000C943F000C943F000C943F0054
:100030000C943F000C943F000C943F000C943F0044
:100040000C943F000C943F000C943F000C943F0034
:100050000C943F0011241FBECFE5D8E0DEBFCDBF1A
:1000600010E0A0E6B0E0E0E5F8E002C005900D92F7
:10007000A437B107D9F70E946A030C9426040C94A4
:10008000000080EF84BB8FEF85BB089585B38F7E22
:1000900085BB85B3806285BB85B3806485BB85B332
:1000A000806885BB989B5CC0999B5CC09A9B5CC038
:1000B0009B9B5CC08FE19EE40197F1F700C00000BC
:1000C00085B3806185BB85B38F7D85BB85B3806437
:1000D00085BB85B3806885BB989B4AC0999B4AC005
:1000E0009A9B4AC09B9B4AC08FE19EE40197F1F71F
:1000F00000C0000085B3806185BB85B3806285BB8D
:1001000085B38F7B85BB85B3806885BB989B38C0E2
:10011000999B38C09A9B38C09B9B38C08FE19EE466
:100120000197F1F700C0000085B3806185BB85B3FE
:10013000806285BB85B3806485BB85B38F7785BBC3
:10014000989B26C0999B26C09A9B26C09B9B26C045
:100150008FE19EE40197F1F700C000008FEF089552
:1001600087E3089588E3089589E308958FE2089569
:1001700084E3089585E3089586E308958AE2089567
:1001800081E3089582E3089583E308958DE208955D
:1001900083E6089580E308958DE308958BE2089542
:1001A0009BB394609BBB882324F49BB390689BBB58
:1001B00003C09BB39F779BBB86FF04C09BB3906437
:1001C0009BBB03C09BB39F7B9BBB85FF04C09BB3C2
:1001D00090629BBB03C09BB39F7D9BBB84FF04C00D
:1001E0009BB390619BBB03C09BB39F7E9BBB9BB3A8
:1001F00098609BBBEFE9FFE03197F1F700C000008A
:100200009BB3977F9BBBEFE9FFE03197F1F700C00D
:10021000000083FF04C09BB390689BBB03C09BB3EB
:100220009F779BBB82FF04C09BB390649BBB03C0C2
:100230009BB39F7B9BBB81FF04C09BB390629BBB26
:1002400003C09BB39F7D9BBB80FF04C08BB38061C9
:100250008BBB03C08BB38F7E8BBB8BB388608BBB98
:100260008FE99FE00197F1F700C000008BB3877F13
:100270008BBBEFE9FFE03197F1F700C00000089574
:10028000CF93DF93EC0103C00E94D00021968881B8
:100290008111FACFDF91CF9108959BB39B7F9BBBD8
:1002A000882324F49BB390689BBB03C09BB39F77C8
:1002B0009BBB86FF04C09BB390649BBB03C09BB3F6
:1002C0009F7B9BBB85FF04C09BB390629BBB03C01D
:1002D0009BB39F7D9BBB84FF04C09BB390619BBB82
:1002E00003C09BB39F7E9BBB9BB398609BBBEFE916
:1002F000FFE03197F1F700C000009BB3977F9BBBF5
:10030000EFE9FFE03197F1F700C0000083FF04C080
:100310009BB390689BBB03C09BB39F779BBB82FF43
:1003200004C09BB390649BBB03C09BB39F7B9BBBF0
:1003300081FF04C09BB390629BBB03C09BB39F7DB6
:100340009BBB80FF04C08BB380618BBB03C08BB3AE
:100350008F7E8BBB8BB388608BBB8FE99FE001974F
:10036000F1F700C000008BB3877F8BBBEFE9FFE0A4
:100370003197F1F700C0000008958AB38C6F8ABBF3
:1003800083E00E944D018FE79EE30197F1F700C0E3
:10039000000083E00E944D018FE79EE30197F1F793
:1003A00000C0000083E00E944D0182E00E944D01E8
:1003B00088E20E944D0181E00E944D0186E00E948A
:1003C0004D018CE00E944D019FEF29EF80E091509C
:1003D00020408040E1F700C000000895FF920F9395
:1003E0001F93CF93DF93CDB7DEB72A970FB6F8945C
:1003F000DEBF0FBECDBF611571058105910521F4EA
:1004000080E30E94D00047C0992354F490958095D2
:10041000709561957F4F8F4F9F4FFF24F39401C0DC
:10042000F12C00E015C02AE030E040E050E00E94EE
:10043000CB03E1E0F0E0EC0FFD1FE00FF11D07FD45
:10044000FA95605D6083622F732F842F952F0F5F65
:10045000611571058105910531F71FEF100FFF2020
:10046000C1F0E1E0F0E0EC0FFD1FE00FF11D07FD32
:10047000FA958DE28083102F0CC0E1E0F0E0EC0FE4
:10048000FD1FE10FF11D17FDFA9580810E94D0003C
:100490001150112394F72A960FB6F894DEBF0FBEC1
:1004A000CDBFDF91CF911F910F91FF900895CF9213
:1004B000DF92EF92FF920F931F93680179014B3205
:1004C00049F01CF44A3281F01CC04D3241F04F32E9
:1004D00091F017C0600F711F821F931F12C0601B25
:1004E000710B820B930B0DC09B01AC01C701B601D0
:1004F0000E94BB0306C0A90198010E94CB03CA0158
:10050000B9011F910F91FF90EF90DF90CF90089568
:100510004F925F926F927F928F929F92AF92BF9213
:10052000CF92DF92EF92FF920F931F93CF93FC0134
:1005300080818D3219F43196C1E001C0C0E050E0F5
:1005400070E043E2C12CD12C7601812C912C540116
:1005500058C0433229F02D3219F4319671E051C060
:1005600080ED820F8A3008F046C0433201F5880CD6
:10057000991CAA1CBB1CD501C401880F991FAA1F76
:10058000BB1F880F991FAA1FBB1F880E991EAA1E8A
:10059000BB1E822F220F990BC097092E000CAA0BAD
:1005A000BB0B880E991EAA1EBB1E51E029C0D701A5
:1005B000C601880F991FAA1FBB1F2C013D01440CC7
:1005C000551C661C771C440C551C661C771C840D3E
:1005D000951DA61DB71D022E000C330B690160E3AB
:1005E000C61AD1080D2C000CEE08FF08C80ED91E43
:1005F000EA1EFB1E05C04332C1F55130D9F5422F2A
:10060000319620812D3309F0A4CF4F3229F4C11443
:10061000D104E104F10499F181149104A104B1041D
:1006200011F4C13089F1C114D104E104F10411F4D1
:10063000713079F1CC2341F0B094A09490948094DF
:10064000811C911CA11CB11C772341F0F094E09413
:10065000D094C094C11CD11CE11CF11C97018601EF
:10066000C501B4010E94570218C066E470E080E042
:1006700090E013C066E470E080E090E00EC066E4B5
:1006800070E080E090E009C066E470E080E090E017
:1006900004C066E470E080E090E0CF911F910F917C
:1006A000FF90EF90DF90CF90BF90AF909F908F9092
:1006B0007F906F905F904F900895CF930E94460077
:1006C000C82F8F3FD9F30E9446008F3FE1F78C2F50
:1006D000CF910895CF93DF93CDB7DEB7AC970FB628
:1006E000F894DEBF0FBECDBF0E94BD010E94410045
:1006F00083E1E0E6F0E0DE01119601900D928A952B
:10070000E1F7E12CF12C01C0F82E0E945D03182FB7
:10071000082FE11005C081E00E944D01EE24E39412
:10072000812F0E94D000033629F481E00E944D0100
:100730008F2DEACF81E08F0DE4E1F0E0EC0FFD1F9B
:10074000EF0DF11DF7FCFA9510830D33E9F6CE019C
:1007500044960E948802663471058105910541F432
:1007600081E00E944D01CE0101960E944001C9CF57
:100770000E94EE01C6CFDB018F939F930E94EA0394
:10078000BF91AF91A29F800D911DA39F900DB29F2D
:10079000900D11240895052E97FB1EF400940E94DD
:1007A000E20357FD07D00E94F50307FC03D04EF487
:1007B0000C94E20350954095309521953F4F4F4F53
:1007C0005F4F089590958095709561957F4F8F4FFD
:1007D0009F4F08950E941704A59F900DB49F900D00
:1007E000A49F800D911D11240895A1E21A2EAA1B29
:1007F000BB1BFD010DC0AA1FBB1FEE1FFF1FA217D1
:10080000B307E407F50720F0A21BB30BE40BF50BCD
:10081000661F771F881F991F1A9469F76095709556
:10082000809590959B01AC01BD01CF010895A29FD9
:10083000B001B39FC001A39F700D811D1124911DB4
:10084000B29F700D811D1124911D0895F894FFCF62
:100850004D617468656D61746963616C2065727265
:040860006F720000B3
:00000001FF
